{
  "contractName": "DappState",
  "abi": [
    {
      "inputs": [],
      "stateMutability": "nonpayable",
      "type": "constructor"
    },
    {
      "anonymous": false,
      "inputs": [
        {
          "indexed": true,
          "internalType": "address",
          "name": "owner",
          "type": "address"
        },
        {
          "indexed": true,
          "internalType": "address",
          "name": "approved",
          "type": "address"
        },
        {
          "indexed": true,
          "internalType": "uint256",
          "name": "tokenId",
          "type": "uint256"
        }
      ],
      "name": "Approval",
      "type": "event"
    },
    {
      "anonymous": false,
      "inputs": [
        {
          "indexed": true,
          "internalType": "address",
          "name": "owner",
          "type": "address"
        },
        {
          "indexed": true,
          "internalType": "address",
          "name": "operator",
          "type": "address"
        },
        {
          "indexed": false,
          "internalType": "bool",
          "name": "approved",
          "type": "bool"
        }
      ],
      "name": "ApprovalForAll",
      "type": "event"
    },
    {
      "anonymous": false,
      "inputs": [
        {
          "indexed": true,
          "internalType": "address",
          "name": "from",
          "type": "address"
        },
        {
          "indexed": true,
          "internalType": "address",
          "name": "to",
          "type": "address"
        },
        {
          "indexed": true,
          "internalType": "uint256",
          "name": "tokenId",
          "type": "uint256"
        }
      ],
      "name": "Transfer",
      "type": "event"
    },
    {
      "inputs": [
        {
          "internalType": "bytes4",
          "name": "interfaceId",
          "type": "bytes4"
        }
      ],
      "name": "supportsInterface",
      "outputs": [
        {
          "internalType": "bool",
          "name": "",
          "type": "bool"
        }
      ],
      "stateMutability": "view",
      "type": "function",
      "constant": true
    },
    {
      "inputs": [
        {
          "internalType": "address",
          "name": "owner",
          "type": "address"
        }
      ],
      "name": "balanceOf",
      "outputs": [
        {
          "internalType": "uint256",
          "name": "",
          "type": "uint256"
        }
      ],
      "stateMutability": "view",
      "type": "function",
      "constant": true
    },
    {
      "inputs": [
        {
          "internalType": "uint256",
          "name": "tokenId",
          "type": "uint256"
        }
      ],
      "name": "ownerOf",
      "outputs": [
        {
          "internalType": "address",
          "name": "",
          "type": "address"
        }
      ],
      "stateMutability": "view",
      "type": "function",
      "constant": true
    },
    {
      "inputs": [
        {
          "internalType": "string",
          "name": "name_",
          "type": "string"
        }
      ],
      "name": "setName",
      "outputs": [],
      "stateMutability": "nonpayable",
      "type": "function"
    },
    {
      "inputs": [
        {
          "internalType": "string",
          "name": "symbol_",
          "type": "string"
        }
      ],
      "name": "setSymbol",
      "outputs": [],
      "stateMutability": "nonpayable",
      "type": "function"
    },
    {
      "inputs": [],
      "name": "name",
      "outputs": [
        {
          "internalType": "string",
          "name": "",
          "type": "string"
        }
      ],
      "stateMutability": "view",
      "type": "function",
      "constant": true
    },
    {
      "inputs": [],
      "name": "symbol",
      "outputs": [
        {
          "internalType": "string",
          "name": "",
          "type": "string"
        }
      ],
      "stateMutability": "view",
      "type": "function",
      "constant": true
    },
    {
      "inputs": [
        {
          "internalType": "uint256",
          "name": "tokenId",
          "type": "uint256"
        }
      ],
      "name": "tokenURI",
      "outputs": [
        {
          "internalType": "string",
          "name": "",
          "type": "string"
        }
      ],
      "stateMutability": "view",
      "type": "function",
      "constant": true
    },
    {
      "inputs": [
        {
          "internalType": "address",
          "name": "to",
          "type": "address"
        },
        {
          "internalType": "uint256",
          "name": "tokenId",
          "type": "uint256"
        }
      ],
      "name": "approve",
      "outputs": [],
      "stateMutability": "nonpayable",
      "type": "function"
    },
    {
      "inputs": [
        {
          "internalType": "uint256",
          "name": "tokenId",
          "type": "uint256"
        }
      ],
      "name": "getApproved",
      "outputs": [
        {
          "internalType": "address",
          "name": "",
          "type": "address"
        }
      ],
      "stateMutability": "view",
      "type": "function",
      "constant": true
    },
    {
      "inputs": [
        {
          "internalType": "address",
          "name": "operator",
          "type": "address"
        },
        {
          "internalType": "bool",
          "name": "approved",
          "type": "bool"
        }
      ],
      "name": "setApprovalForAll",
      "outputs": [],
      "stateMutability": "nonpayable",
      "type": "function"
    },
    {
      "inputs": [
        {
          "internalType": "address",
          "name": "owner",
          "type": "address"
        },
        {
          "internalType": "address",
          "name": "operator",
          "type": "address"
        }
      ],
      "name": "isApprovedForAll",
      "outputs": [
        {
          "internalType": "bool",
          "name": "",
          "type": "bool"
        }
      ],
      "stateMutability": "view",
      "type": "function",
      "constant": true
    },
    {
      "inputs": [
        {
          "internalType": "address",
          "name": "from",
          "type": "address"
        },
        {
          "internalType": "address",
          "name": "to",
          "type": "address"
        },
        {
          "internalType": "uint256",
          "name": "tokenId",
          "type": "uint256"
        }
      ],
      "name": "transferFrom",
      "outputs": [],
      "stateMutability": "nonpayable",
      "type": "function"
    },
    {
      "inputs": [
        {
          "internalType": "address",
          "name": "from",
          "type": "address"
        },
        {
          "internalType": "address",
          "name": "to",
          "type": "address"
        },
        {
          "internalType": "uint256",
          "name": "tokenId",
          "type": "uint256"
        }
      ],
      "name": "safeTransferFrom",
      "outputs": [],
      "stateMutability": "nonpayable",
      "type": "function"
    },
    {
      "inputs": [
        {
          "internalType": "address",
          "name": "from",
          "type": "address"
        },
        {
          "internalType": "address",
          "name": "to",
          "type": "address"
        },
        {
          "internalType": "uint256",
          "name": "tokenId",
          "type": "uint256"
        },
        {
          "internalType": "bytes",
          "name": "_data",
          "type": "bytes"
        }
      ],
      "name": "safeTransferFrom",
      "outputs": [],
      "stateMutability": "nonpayable",
      "type": "function"
    },
    {
      "inputs": [
        {
          "internalType": "address",
          "name": "from",
          "type": "address"
        },
        {
          "internalType": "address",
          "name": "to",
          "type": "address"
        },
        {
          "internalType": "uint256",
          "name": "tokenId",
          "type": "uint256"
        },
        {
          "internalType": "bytes",
          "name": "_data",
          "type": "bytes"
        }
      ],
      "name": "_safeTransfer",
      "outputs": [],
      "stateMutability": "nonpayable",
      "type": "function"
    },
    {
      "inputs": [
        {
          "internalType": "address",
          "name": "to",
          "type": "address"
        },
        {
          "internalType": "uint256",
          "name": "tokenId",
          "type": "uint256"
        },
        {
          "internalType": "bytes",
          "name": "_data",
          "type": "bytes"
        }
      ],
      "name": "_safeMint",
      "outputs": [],
      "stateMutability": "nonpayable",
      "type": "function"
    },
    {
      "inputs": [
        {
          "internalType": "address",
          "name": "to",
          "type": "address"
        },
        {
          "internalType": "uint256",
          "name": "tokenId",
          "type": "uint256"
        }
      ],
      "name": "_safeMint",
      "outputs": [],
      "stateMutability": "nonpayable",
      "type": "function"
    },
    {
      "inputs": [
        {
          "internalType": "uint256",
          "name": "tokenId",
          "type": "uint256"
        }
      ],
      "name": "_burn",
      "outputs": [],
      "stateMutability": "nonpayable",
      "type": "function"
    },
    {
      "inputs": [
        {
          "internalType": "address",
          "name": "to",
          "type": "address"
        },
        {
          "internalType": "uint256",
          "name": "tokenId",
          "type": "uint256"
        }
      ],
      "name": "_approve",
      "outputs": [],
      "stateMutability": "nonpayable",
      "type": "function"
    },
    {
      "inputs": [
        {
          "internalType": "address",
          "name": "account",
          "type": "address"
        }
      ],
      "name": "isContractAdmin",
      "outputs": [
        {
          "internalType": "bool",
          "name": "",
          "type": "bool"
        }
      ],
      "stateMutability": "view",
      "type": "function",
      "constant": true
    },
    {
      "inputs": [
        {
          "internalType": "address",
          "name": "account",
          "type": "address"
        }
      ],
      "name": "addContractAdmin",
      "outputs": [],
      "stateMutability": "nonpayable",
      "type": "function"
    },
    {
      "inputs": [
        {
          "internalType": "address",
          "name": "account",
          "type": "address"
        }
      ],
      "name": "removeContractAdmin",
      "outputs": [],
      "stateMutability": "nonpayable",
      "type": "function"
    },
    {
      "inputs": [
        {
          "internalType": "address",
          "name": "account",
          "type": "address"
        }
      ],
      "name": "removeLastContractAdmin",
      "outputs": [],
      "stateMutability": "nonpayable",
      "type": "function"
    },
    {
      "inputs": [],
      "name": "getContractOwner",
      "outputs": [
        {
          "internalType": "address",
          "name": "",
          "type": "address"
        }
      ],
      "stateMutability": "view",
      "type": "function",
      "constant": true
    },
    {
      "inputs": [
        {
          "internalType": "uint256",
          "name": "increment",
          "type": "uint256"
        }
      ],
      "name": "incrementCounter",
      "outputs": [],
      "stateMutability": "nonpayable",
      "type": "function"
    },
    {
      "inputs": [],
      "name": "getCounter",
      "outputs": [
        {
          "internalType": "uint256",
          "name": "",
          "type": "uint256"
        }
      ],
      "stateMutability": "view",
      "type": "function",
      "constant": true
    }
  ],
  "bytecode": "0x6080604052600160075534801561001557600080fd5b50336000806101000a81548173ffffffffffffffffffffffffffffffffffffffff021916908373ffffffffffffffffffffffffffffffffffffffff1602179055506001600860003373ffffffffffffffffffffffffffffffffffffffff1673ffffffffffffffffffffffffffffffffffffffff1681526020019081526020016000208190555061365c806100aa6000396000f3fe608060405234801561001057600080fd5b50600436106101a95760003560e01c80637b7d7225116100f9578063b3e1c71811610097578063c47f002711610071578063c47f00271461048a578063c87b56dd146104a6578063e985e9c5146104d6578063fc81a12a14610506576101a9565b8063b3e1c71814610436578063b84c824614610452578063b88d4fde1461046e576101a9565b80639b1f9e74116100d35780639b1f9e74146103c6578063a22cb465146103e2578063a417a564146103fe578063a90132291461041a576101a9565b80637b7d72251461036e5780638ada066e1461038a57806395d89b41146103a8576101a9565b806342842e0e116101665780636352211e116101405780636352211e146102d65780636a4f832b146103065780636abbb3b41461032257806370a082311461033e576101a9565b806342842e0e14610280578063442890d51461029c5780634743909e146102ba576101a9565b806301ffc9a7146101ae57806306fdde03146101de578063081812fc146101fc578063095ea7b31461022c57806323b872dd1461024857806324b6b8c014610264575b600080fd5b6101c860048036038101906101c39190612468565b610536565b6040516101d5919061294f565b60405180910390f35b6101e6610618565b6040516101f3919061296a565b60405180910390f35b6102166004803603810190610211919061250b565b6106aa565b60405161022391906128e8565b60405180910390f35b610246600480360381019061024191906123b9565b61072f565b005b610262600480360381019061025d91906122a3565b610847565b005b61027e600480360381019061027991906122f6565b6108a7565b005b61029a600480360381019061029591906122a3565b610903565b005b6102a4610923565b6040516102b191906128e8565b60405180910390f35b6102d460048036038101906102cf9190612236565b61094c565b005b6102f060048036038101906102eb919061250b565b610aa8565b6040516102fd91906128e8565b60405180910390f35b610320600480360381019061031b91906123f9565b610b5a565b005b61033c6004803603810190610337919061250b565b610bfd565b005b61035860048036038101906103539190612236565b610c6a565b6040516103659190612c0c565b60405180910390f35b610388600480360381019061038391906123b9565b610d22565b005b610392610e23565b60405161039f9190612c0c565b60405180910390f35b6103b0610e2d565b6040516103bd919061296a565b60405180910390f35b6103e060048036038101906103db919061250b565b610ebf565b005b6103fc60048036038101906103f79190612379565b611018565b005b61041860048036038101906104139190612236565b611199565b005b610434600480360381019061042f9190612236565b6112f4565b005b610450600480360381019061044b91906123b9565b61148e565b005b61046c600480360381019061046791906124c2565b6114f4565b005b610488600480360381019061048391906122f6565b61150e565b005b6104a4600480360381019061049f91906124c2565b611570565b005b6104c060048036038101906104bb919061250b565b61158a565b6040516104cd919061296a565b60405180910390f35b6104f060048036038101906104eb9190612263565b611631565b6040516104fd919061294f565b60405180910390f35b610520600480360381019061051b9190612236565b6116c5565b60405161052d919061294f565b60405180910390f35b60007f80ac58cd000000000000000000000000000000000000000000000000000000007bffffffffffffffffffffffffffffffffffffffffffffffffffffffff1916827bffffffffffffffffffffffffffffffffffffffffffffffffffffffff1916148061060157507f5b5e139f000000000000000000000000000000000000000000000000000000007bffffffffffffffffffffffffffffffffffffffffffffffffffffffff1916827bffffffffffffffffffffffffffffffffffffffffffffffffffffffff1916145b80610611575061061082611711565b5b9050919050565b60606001805461062790612e8c565b80601f016020809104026020016040519081016040528092919081815260200182805461065390612e8c565b80156106a05780601f10610675576101008083540402835291602001916106a0565b820191906000526020600020905b81548152906001019060200180831161068357829003601f168201915b5050505050905090565b60006106b58261177b565b6106f4576040517f08c379a00000000000000000000000000000000000000000000000000000000081526004016106eb90612acc565b60405180910390fd5b6005600083815260200190815260200160002060009054906101000a900473ffffffffffffffffffffffffffffffffffffffff169050919050565b600061073a82610aa8565b90508073ffffffffffffffffffffffffffffffffffffffff168373ffffffffffffffffffffffffffffffffffffffff1614156107ab576040517f08c379a00000000000000000000000000000000000000000000000000000000081526004016107a290612b2c565b60405180910390fd5b8073ffffffffffffffffffffffffffffffffffffffff166107ca6117e7565b73ffffffffffffffffffffffffffffffffffffffff1614806107f957506107f8816107f36117e7565b611631565b5b610838576040517f08c379a000000000000000000000000000000000000000000000000000000000815260040161082f90612a4c565b60405180910390fd5b6108428383610d22565b505050565b6108586108526117e7565b826117ef565b610897576040517f08c379a000000000000000000000000000000000000000000000000000000000815260040161088e90612b6c565b60405180910390fd5b6108a28383836118cd565b505050565b6108b28484846118cd565b6108be84848484611b29565b6108fd576040517f08c379a00000000000000000000000000000000000000000000000000000000081526004016108f4906129ac565b60405180910390fd5b50505050565b61091e8383836040518060200160405280600081525061150e565b505050565b60008060009054906101000a900473ffffffffffffffffffffffffffffffffffffffff16905090565b610955336116c5565b610994576040517f08c379a000000000000000000000000000000000000000000000000000000000815260040161098b90612bec565b60405180910390fd5b600073ffffffffffffffffffffffffffffffffffffffff168173ffffffffffffffffffffffffffffffffffffffff161415610a04576040517f08c379a00000000000000000000000000000000000000000000000000000000081526004016109fb9061298c565b60405180910390fd5b60026007541015610a4a576040517f08c379a0000000000000000000000000000000000000000000000000000000008152600401610a4190612b4c565b60405180910390fd5b600860008273ffffffffffffffffffffffffffffffffffffffff1673ffffffffffffffffffffffffffffffffffffffff1681526020019081526020016000206000905560076000815480929190610aa090612e62565b919050555050565b6000806003600084815260200190815260200160002060009054906101000a900473ffffffffffffffffffffffffffffffffffffffff169050600073ffffffffffffffffffffffffffffffffffffffff168173ffffffffffffffffffffffffffffffffffffffff161415610b51576040517f08c379a0000000000000000000000000000000000000000000000000000000008152600401610b4890612a8c565b60405180910390fd5b80915050919050565b610b63336116c5565b610ba2576040517f08c379a0000000000000000000000000000000000000000000000000000000008152600401610b9990612bec565b60405180910390fd5b610bac8383611cc0565b610bb96000848484611b29565b610bf8576040517f08c379a0000000000000000000000000000000000000000000000000000000008152600401610bef906129ac565b60405180910390fd5b505050565b600081118015610c0d5750600a81105b610c4c576040517f08c379a0000000000000000000000000000000000000000000000000000000008152600401610c4390612b8c565b60405180910390fd5b610c6181600954611e8e90919063ffffffff16565b60098190555050565b60008073ffffffffffffffffffffffffffffffffffffffff168273ffffffffffffffffffffffffffffffffffffffff161415610cdb576040517f08c379a0000000000000000000000000000000000000000000000000000000008152600401610cd290612a6c565b60405180910390fd5b600460008373ffffffffffffffffffffffffffffffffffffffff1673ffffffffffffffffffffffffffffffffffffffff168152602001908152602001600020549050919050565b610d2b336116c5565b610d6a576040517f08c379a0000000000000000000000000000000000000000000000000000000008152600401610d6190612bec565b60405180910390fd5b816005600083815260200190815260200160002060006101000a81548173ffffffffffffffffffffffffffffffffffffffff021916908373ffffffffffffffffffffffffffffffffffffffff160217905550808273ffffffffffffffffffffffffffffffffffffffff16610ddd83610aa8565b73ffffffffffffffffffffffffffffffffffffffff167f8c5be1e5ebec7d5bd14f71427d1e84f3dd0314c0f7b2291e5b200ac8c7c3b92560405160405180910390a45050565b6000600954905090565b606060028054610e3c90612e8c565b80601f0160208091040260200160405190810160405280929190818152602001828054610e6890612e8c565b8015610eb55780601f10610e8a57610100808354040283529160200191610eb5565b820191906000526020600020905b815481529060010190602001808311610e9857829003601f168201915b5050505050905090565b610ec8336116c5565b610f07576040517f08c379a0000000000000000000000000000000000000000000000000000000008152600401610efe90612bec565b60405180910390fd5b6000610f1282610aa8565b9050610f2081600084611eba565b610f2b600083610d22565b6001600460008373ffffffffffffffffffffffffffffffffffffffff1673ffffffffffffffffffffffffffffffffffffffff1681526020019081526020016000206000828254610f7b9190612d78565b925050819055506003600083815260200190815260200160002060006101000a81549073ffffffffffffffffffffffffffffffffffffffff021916905581600073ffffffffffffffffffffffffffffffffffffffff168273ffffffffffffffffffffffffffffffffffffffff167fddf252ad1be2c89b69c2b068fc378daa952ba7f163c4a11628f55a4df523b3ef60405160405180910390a45050565b6110206117e7565b73ffffffffffffffffffffffffffffffffffffffff168273ffffffffffffffffffffffffffffffffffffffff16141561108e576040517f08c379a000000000000000000000000000000000000000000000000000000000815260040161108590612a0c565b60405180910390fd5b806006600061109b6117e7565b73ffffffffffffffffffffffffffffffffffffffff1673ffffffffffffffffffffffffffffffffffffffff16815260200190815260200160002060008473ffffffffffffffffffffffffffffffffffffffff1673ffffffffffffffffffffffffffffffffffffffff16815260200190815260200160002060006101000a81548160ff0219169083151502179055508173ffffffffffffffffffffffffffffffffffffffff166111486117e7565b73ffffffffffffffffffffffffffffffffffffffff167f17307eab39ab6107e8899845ad3d59bd9653f200f220920489ca2b5937696c318360405161118d919061294f565b60405180910390a35050565b6111a2336116c5565b6111e1576040517f08c379a00000000000000000000000000000000000000000000000000000000081526004016111d890612bec565b60405180910390fd5b600073ffffffffffffffffffffffffffffffffffffffff168173ffffffffffffffffffffffffffffffffffffffff161415611251576040517f08c379a00000000000000000000000000000000000000000000000000000000081526004016112489061298c565b60405180910390fd5b600160075414611296576040517f08c379a000000000000000000000000000000000000000000000000000000000815260040161128d90612bcc565b60405180910390fd5b600860008273ffffffffffffffffffffffffffffffffffffffff1673ffffffffffffffffffffffffffffffffffffffff16815260200190815260200160002060009055600760008154809291906112ec90612e62565b919050555050565b6112fd336116c5565b61133c576040517f08c379a000000000000000000000000000000000000000000000000000000000815260040161133390612bec565b60405180910390fd5b600073ffffffffffffffffffffffffffffffffffffffff168173ffffffffffffffffffffffffffffffffffffffff1614156113ac576040517f08c379a00000000000000000000000000000000000000000000000000000000081526004016113a39061298c565b60405180910390fd5b6001600860008373ffffffffffffffffffffffffffffffffffffffff1673ffffffffffffffffffffffffffffffffffffffff168152602001908152602001600020541061142e576040517f08c379a000000000000000000000000000000000000000000000000000000000815260040161142590612bac565b60405180910390fd5b6001600860008373ffffffffffffffffffffffffffffffffffffffff1673ffffffffffffffffffffffffffffffffffffffff168152602001908152602001600020819055506007600081548092919061148690612eef565b919050555050565b611497336116c5565b6114d6576040517f08c379a00000000000000000000000000000000000000000000000000000000081526004016114cd90612bec565b60405180910390fd5b6114f0828260405180602001604052806000815250610b5a565b5050565b806002908051906020019061150a92919061204a565b5050565b61151f6115196117e7565b836117ef565b61155e576040517f08c379a000000000000000000000000000000000000000000000000000000000815260040161155590612b6c565b60405180910390fd5b61156a848484846108a7565b50505050565b806001908051906020019061158692919061204a565b5050565b60606115958261177b565b6115d4576040517f08c379a00000000000000000000000000000000000000000000000000000000081526004016115cb90612b0c565b60405180910390fd5b60006115de611ebf565b905060008151116115fe5760405180602001604052806000815250611629565b8061160884611ed6565b6040516020016116199291906128c4565b6040516020818303038152906040525b915050919050565b6000600660008473ffffffffffffffffffffffffffffffffffffffff1673ffffffffffffffffffffffffffffffffffffffff16815260200190815260200160002060008373ffffffffffffffffffffffffffffffffffffffff1673ffffffffffffffffffffffffffffffffffffffff16815260200190815260200160002060009054906101000a900460ff16905092915050565b60006001600860008473ffffffffffffffffffffffffffffffffffffffff1673ffffffffffffffffffffffffffffffffffffffff16815260200190815260200160002054149050919050565b60007f01ffc9a7000000000000000000000000000000000000000000000000000000007bffffffffffffffffffffffffffffffffffffffffffffffffffffffff1916827bffffffffffffffffffffffffffffffffffffffffffffffffffffffff1916149050919050565b60008073ffffffffffffffffffffffffffffffffffffffff166003600084815260200190815260200160002060009054906101000a900473ffffffffffffffffffffffffffffffffffffffff1673ffffffffffffffffffffffffffffffffffffffff1614159050919050565b600033905090565b60006117fa8261177b565b611839576040517f08c379a000000000000000000000000000000000000000000000000000000000815260040161183090612a2c565b60405180910390fd5b600061184483610aa8565b90508073ffffffffffffffffffffffffffffffffffffffff168473ffffffffffffffffffffffffffffffffffffffff1614806118b357508373ffffffffffffffffffffffffffffffffffffffff1661189b846106aa565b73ffffffffffffffffffffffffffffffffffffffff16145b806118c457506118c38185611631565b5b91505092915050565b8273ffffffffffffffffffffffffffffffffffffffff166118ed82610aa8565b73ffffffffffffffffffffffffffffffffffffffff1614611943576040517f08c379a000000000000000000000000000000000000000000000000000000000815260040161193a90612aec565b60405180910390fd5b600073ffffffffffffffffffffffffffffffffffffffff168273ffffffffffffffffffffffffffffffffffffffff1614156119b3576040517f08c379a00000000000000000000000000000000000000000000000000000000081526004016119aa906129ec565b60405180910390fd5b6119be838383611eba565b6119c9600082610d22565b6001600460008573ffffffffffffffffffffffffffffffffffffffff1673ffffffffffffffffffffffffffffffffffffffff1681526020019081526020016000206000828254611a199190612d78565b925050819055506001600460008473ffffffffffffffffffffffffffffffffffffffff1673ffffffffffffffffffffffffffffffffffffffff1681526020019081526020016000206000828254611a709190612cf1565b92505081905550816003600083815260200190815260200160002060006101000a81548173ffffffffffffffffffffffffffffffffffffffff021916908373ffffffffffffffffffffffffffffffffffffffff160217905550808273ffffffffffffffffffffffffffffffffffffffff168473ffffffffffffffffffffffffffffffffffffffff167fddf252ad1be2c89b69c2b068fc378daa952ba7f163c4a11628f55a4df523b3ef60405160405180910390a4505050565b6000611b4a8473ffffffffffffffffffffffffffffffffffffffff16612037565b15611cb3578373ffffffffffffffffffffffffffffffffffffffff1663150b7a02611b736117e7565b8786866040518563ffffffff1660e01b8152600401611b959493929190612903565b602060405180830381600087803b158015611baf57600080fd5b505af1925050508015611be057506040513d601f19601f82011682018060405250810190611bdd9190612495565b60015b611c63573d8060008114611c10576040519150601f19603f3d011682016040523d82523d6000602084013e611c15565b606091505b50600081511415611c5b576040517f08c379a0000000000000000000000000000000000000000000000000000000008152600401611c52906129ac565b60405180910390fd5b805181602001fd5b63150b7a0260e01b7bffffffffffffffffffffffffffffffffffffffffffffffffffffffff1916817bffffffffffffffffffffffffffffffffffffffffffffffffffffffff191614915050611cb8565b600190505b949350505050565b600073ffffffffffffffffffffffffffffffffffffffff168273ffffffffffffffffffffffffffffffffffffffff161415611d30576040517f08c379a0000000000000000000000000000000000000000000000000000000008152600401611d2790612aac565b60405180910390fd5b611d398161177b565b15611d79576040517f08c379a0000000000000000000000000000000000000000000000000000000008152600401611d70906129cc565b60405180910390fd5b611d8560008383611eba565b6001600460008473ffffffffffffffffffffffffffffffffffffffff1673ffffffffffffffffffffffffffffffffffffffff1681526020019081526020016000206000828254611dd59190612cf1565b92505081905550816003600083815260200190815260200160002060006101000a81548173ffffffffffffffffffffffffffffffffffffffff021916908373ffffffffffffffffffffffffffffffffffffffff160217905550808273ffffffffffffffffffffffffffffffffffffffff16600073ffffffffffffffffffffffffffffffffffffffff167fddf252ad1be2c89b69c2b068fc378daa952ba7f163c4a11628f55a4df523b3ef60405160405180910390a45050565b6000808284611e9d9190612cf1565b905083811015611eb057611eaf612f69565b5b8091505092915050565b505050565b606060405180602001604052806000815250905090565b60606000821415611f1e576040518060400160405280600181526020017f30000000000000000000000000000000000000000000000000000000000000008152509050612032565b600082905060005b60008214611f50578080611f3990612eef565b915050600a82611f499190612d47565b9150611f26565b60008167ffffffffffffffff811115611f6c57611f6b613054565b5b6040519080825280601f01601f191660200182016040528015611f9e5781602001600182028036833780820191505090505b5090505b6000851461202b57600182611fb79190612d78565b9150600a85611fc69190612f38565b6030611fd29190612cf1565b60f81b818381518110611fe857611fe7613025565b5b60200101907effffffffffffffffffffffffffffffffffffffffffffffffffffffffffffff1916908160001a905350600a856120249190612d47565b9450611fa2565b8093505050505b919050565b600080823b905060008111915050919050565b82805461205690612e8c565b90600052602060002090601f01602090048101928261207857600085556120bf565b82601f1061209157805160ff19168380011785556120bf565b828001600101855582156120bf579182015b828111156120be5782518255916020019190600101906120a3565b5b5090506120cc91906120d0565b5090565b5b808211156120e95760008160009055506001016120d1565b5090565b60006121006120fb84612c4c565b612c27565b90508281526020810184848401111561211c5761211b613088565b5b612127848285612e20565b509392505050565b600061214261213d84612c7d565b612c27565b90508281526020810184848401111561215e5761215d613088565b5b612169848285612e20565b509392505050565b600081359050612180816135ca565b92915050565b600081359050612195816135e1565b92915050565b6000813590506121aa816135f8565b92915050565b6000815190506121bf816135f8565b92915050565b600082601f8301126121da576121d9613083565b5b81356121ea8482602086016120ed565b91505092915050565b600082601f83011261220857612207613083565b5b813561221884826020860161212f565b91505092915050565b6000813590506122308161360f565b92915050565b60006020828403121561224c5761224b613092565b5b600061225a84828501612171565b91505092915050565b6000806040838503121561227a57612279613092565b5b600061228885828601612171565b925050602061229985828601612171565b9150509250929050565b6000806000606084860312156122bc576122bb613092565b5b60006122ca86828701612171565b93505060206122db86828701612171565b92505060406122ec86828701612221565b9150509250925092565b600080600080608085870312156123105761230f613092565b5b600061231e87828801612171565b945050602061232f87828801612171565b935050604061234087828801612221565b925050606085013567ffffffffffffffff8111156123615761236061308d565b5b61236d878288016121c5565b91505092959194509250565b600080604083850312156123905761238f613092565b5b600061239e85828601612171565b92505060206123af85828601612186565b9150509250929050565b600080604083850312156123d0576123cf613092565b5b60006123de85828601612171565b92505060206123ef85828601612221565b9150509250929050565b60008060006060848603121561241257612411613092565b5b600061242086828701612171565b935050602061243186828701612221565b925050604084013567ffffffffffffffff8111156124525761245161308d565b5b61245e868287016121c5565b9150509250925092565b60006020828403121561247e5761247d613092565b5b600061248c8482850161219b565b91505092915050565b6000602082840312156124ab576124aa613092565b5b60006124b9848285016121b0565b91505092915050565b6000602082840312156124d8576124d7613092565b5b600082013567ffffffffffffffff8111156124f6576124f561308d565b5b612502848285016121f3565b91505092915050565b60006020828403121561252157612520613092565b5b600061252f84828501612221565b91505092915050565b61254181612dac565b82525050565b61255081612dbe565b82525050565b600061256182612cae565b61256b8185612cc4565b935061257b818560208601612e2f565b61258481613097565b840191505092915050565b600061259a82612cb9565b6125a48185612cd5565b93506125b4818560208601612e2f565b6125bd81613097565b840191505092915050565b60006125d382612cb9565b6125dd8185612ce6565b93506125ed818560208601612e2f565b80840191505092915050565b6000612606600f83612cd5565b9150612611826130a8565b602082019050919050565b6000612629603283612cd5565b9150612634826130d1565b604082019050919050565b600061264c601c83612cd5565b915061265782613120565b602082019050919050565b600061266f602483612cd5565b915061267a82613149565b604082019050919050565b6000612692601983612cd5565b915061269d82613198565b602082019050919050565b60006126b5602c83612cd5565b91506126c0826131c1565b604082019050919050565b60006126d8603883612cd5565b91506126e382613210565b604082019050919050565b60006126fb602a83612cd5565b91506127068261325f565b604082019050919050565b600061271e602983612cd5565b9150612729826132ae565b604082019050919050565b6000612741602083612cd5565b915061274c826132fd565b602082019050919050565b6000612764602c83612cd5565b915061276f82613326565b604082019050919050565b6000612787602983612cd5565b915061279282613375565b604082019050919050565b60006127aa602f83612cd5565b91506127b5826133c4565b604082019050919050565b60006127cd602183612cd5565b91506127d882613413565b604082019050919050565b60006127f0601883612cd5565b91506127fb82613462565b602082019050919050565b6000612813603183612cd5565b915061281e8261348b565b604082019050919050565b6000612836601783612cd5565b9150612841826134da565b602082019050919050565b6000612859602383612cd5565b915061286482613503565b604082019050919050565b600061287c601283612cd5565b915061288782613552565b602082019050919050565b600061289f602683612cd5565b91506128aa8261357b565b604082019050919050565b6128be81612e16565b82525050565b60006128d082856125c8565b91506128dc82846125c8565b91508190509392505050565b60006020820190506128fd6000830184612538565b92915050565b60006080820190506129186000830187612538565b6129256020830186612538565b61293260408301856128b5565b81810360608301526129448184612556565b905095945050505050565b60006020820190506129646000830184612547565b92915050565b60006020820190508181036000830152612984818461258f565b905092915050565b600060208201905081810360008301526129a5816125f9565b9050919050565b600060208201905081810360008301526129c58161261c565b9050919050565b600060208201905081810360008301526129e58161263f565b9050919050565b60006020820190508181036000830152612a0581612662565b9050919050565b60006020820190508181036000830152612a2581612685565b9050919050565b60006020820190508181036000830152612a45816126a8565b9050919050565b60006020820190508181036000830152612a65816126cb565b9050919050565b60006020820190508181036000830152612a85816126ee565b9050919050565b60006020820190508181036000830152612aa581612711565b9050919050565b60006020820190508181036000830152612ac581612734565b9050919050565b60006020820190508181036000830152612ae581612757565b9050919050565b60006020820190508181036000830152612b058161277a565b9050919050565b60006020820190508181036000830152612b258161279d565b9050919050565b60006020820190508181036000830152612b45816127c0565b9050919050565b60006020820190508181036000830152612b65816127e3565b9050919050565b60006020820190508181036000830152612b8581612806565b9050919050565b60006020820190508181036000830152612ba581612829565b9050919050565b60006020820190508181036000830152612bc58161284c565b9050919050565b60006020820190508181036000830152612be58161286f565b9050919050565b60006020820190508181036000830152612c0581612892565b9050919050565b6000602082019050612c2160008301846128b5565b92915050565b6000612c31612c42565b9050612c3d8282612ebe565b919050565b6000604051905090565b600067ffffffffffffffff821115612c6757612c66613054565b5b612c7082613097565b9050602081019050919050565b600067ffffffffffffffff821115612c9857612c97613054565b5b612ca182613097565b9050602081019050919050565b600081519050919050565b600081519050919050565b600082825260208201905092915050565b600082825260208201905092915050565b600081905092915050565b6000612cfc82612e16565b9150612d0783612e16565b9250827fffffffffffffffffffffffffffffffffffffffffffffffffffffffffffffffff03821115612d3c57612d3b612f98565b5b828201905092915050565b6000612d5282612e16565b9150612d5d83612e16565b925082612d6d57612d6c612fc7565b5b828204905092915050565b6000612d8382612e16565b9150612d8e83612e16565b925082821015612da157612da0612f98565b5b828203905092915050565b6000612db782612df6565b9050919050565b60008115159050919050565b60007fffffffff0000000000000000000000000000000000000000000000000000000082169050919050565b600073ffffffffffffffffffffffffffffffffffffffff82169050919050565b6000819050919050565b82818337600083830152505050565b60005b83811015612e4d578082015181840152602081019050612e32565b83811115612e5c576000848401525b50505050565b6000612e6d82612e16565b91506000821415612e8157612e80612f98565b5b600182039050919050565b60006002820490506001821680612ea457607f821691505b60208210811415612eb857612eb7612ff6565b5b50919050565b612ec782613097565b810181811067ffffffffffffffff82111715612ee657612ee5613054565b5b80604052505050565b6000612efa82612e16565b91507fffffffffffffffffffffffffffffffffffffffffffffffffffffffffffffffff821415612f2d57612f2c612f98565b5b600182019050919050565b6000612f4382612e16565b9150612f4e83612e16565b925082612f5e57612f5d612fc7565b5b828206905092915050565b7f4e487b7100000000000000000000000000000000000000000000000000000000600052600160045260246000fd5b7f4e487b7100000000000000000000000000000000000000000000000000000000600052601160045260246000fd5b7f4e487b7100000000000000000000000000000000000000000000000000000000600052601260045260246000fd5b7f4e487b7100000000000000000000000000000000000000000000000000000000600052602260045260246000fd5b7f4e487b7100000000000000000000000000000000000000000000000000000000600052603260045260246000fd5b7f4e487b7100000000000000000000000000000000000000000000000000000000600052604160045260246000fd5b600080fd5b600080fd5b600080fd5b600080fd5b6000601f19601f8301169050919050565b7f496e76616c696420616464726573730000000000000000000000000000000000600082015250565b7f4552433732313a207472616e7366657220746f206e6f6e20455243373231526560008201527f63656976657220696d706c656d656e7465720000000000000000000000000000602082015250565b7f4552433732313a20746f6b656e20616c7265616479206d696e74656400000000600082015250565b7f4552433732313a207472616e7366657220746f20746865207a65726f2061646460008201527f7265737300000000000000000000000000000000000000000000000000000000602082015250565b7f4552433732313a20617070726f766520746f2063616c6c657200000000000000600082015250565b7f4552433732313a206f70657261746f7220717565727920666f72206e6f6e657860008201527f697374656e7420746f6b656e0000000000000000000000000000000000000000602082015250565b7f4552433732313a20617070726f76652063616c6c6572206973206e6f74206f7760008201527f6e6572206e6f7220617070726f76656420666f7220616c6c0000000000000000602082015250565b7f4552433732313a2062616c616e636520717565727920666f7220746865207a6560008201527f726f206164647265737300000000000000000000000000000000000000000000602082015250565b7f4552433732313a206f776e657220717565727920666f72206e6f6e657869737460008201527f656e7420746f6b656e0000000000000000000000000000000000000000000000602082015250565b7f4552433732313a206d696e7420746f20746865207a65726f2061646472657373600082015250565b7f4552433732313a20617070726f76656420717565727920666f72206e6f6e657860008201527f697374656e7420746f6b656e0000000000000000000000000000000000000000602082015250565b7f4552433732313a207472616e73666572206f6620746f6b656e2074686174206960008201527f73206e6f74206f776e0000000000000000000000000000000000000000000000602082015250565b7f4552433732314d657461646174613a2055524920717565727920666f72206e6f60008201527f6e6578697374656e7420746f6b656e0000000000000000000000000000000000602082015250565b7f4552433732313a20617070726f76616c20746f2063757272656e74206f776e6560008201527f7200000000000000000000000000000000000000000000000000000000000000602082015250565b7f43616e6e6f742072656d6f7665206c6173742061646d696e0000000000000000600082015250565b7f4552433732313a207472616e736665722063616c6c6572206973206e6f74206f60008201527f776e6572206e6f7220617070726f766564000000000000000000000000000000602082015250565b7f496e76616c696420696e6372656d656e742076616c7565000000000000000000600082015250565b7f4163636f756e7420697320616c726561647920616e2061646d696e697374726160008201527f746f720000000000000000000000000000000000000000000000000000000000602082015250565b7f4e6f7420746865206c6173742061646d696e0000000000000000000000000000600082015250565b7f43616c6c6572206973206e6f74206120636f6e74726163742061646d696e697360008201527f747261746f720000000000000000000000000000000000000000000000000000602082015250565b6135d381612dac565b81146135de57600080fd5b50565b6135ea81612dbe565b81146135f557600080fd5b50565b61360181612dca565b811461360c57600080fd5b50565b61361881612e16565b811461362357600080fd5b5056fea2646970667358221220ef99ca9ebf87c657b07cd862866c7022f96c04f56d3bfc96ba78ac0d5650f25664736f6c63430008070033",
  "immutableReferences": {},
  "source": "// SPDX-License-Identifier: MIT\npragma solidity ^0.8.0;\npragma experimental ABIEncoderV2;\n\nimport \"./interfaces/IDappState.sol\";\nimport \"./DappLib.sol\";\nimport \"./interfaces/IERC721.sol\";\nimport \"./interfaces/IERC721Receiver.sol\";\nimport \"./interfaces/IERC721Metadata.sol\";\nimport \"./imports/custom_nft/Address.sol\";\nimport \"./imports/custom_nft/Context.sol\";\nimport \"./imports/custom_nft/Strings.sol\";\nimport \"./imports/custom_nft/ERC165.sol\";\n\n\n\n/********************************************************************************************/\n/* This contract is auto-generated based on your choices in DappStarter. You can make       */\n/* changes, but be aware that generating a new DappStarter project will require you to      */\n/* merge changes. One approach you can take is to make changes in Dapp.sol and have it      */\n/* call into this one. You can maintain all your data in this contract and your app logic   */\n/* in Dapp.sol. This lets you update and deploy Dapp.sol with revised code and still        */\n/* continue using this one.                                                                 */\n/********************************************************************************************/\n\ncontract DappState is IDappState, Context, ERC165, IERC721, IERC721Metadata\n                      \n\n{\n    // Allow DappLib(SafeMath) functions to be called for all uint256 types\n    // (similar to \"prototype\" in Javascript)\n    using DappLib for uint256; \n    using Address for address;\n    using Strings for uint256;\n\n\n/*@@@@@@@@@@@@@@@@@@@@@@@@@@@@@@@@@@@@@@@@@@@@@@@@@@@@@@@@@@@@@@@@@@@@@@@@@@@@@@@@@@@@@@@@@@*/\n/*@@@@@@@@@@@@@@@@@@@@@@@@@@@@@@@@@@@@@@@@ S T A T E @@@@@@@@@@@@@@@@@@@@@@@@@@@@@@@@@@@@@@@*/\n/*@@@@@@@@@@@@@@@@@@@@@@@@@@@@@@@@@@@@@@@@@@@@@@@@@@@@@@@@@@@@@@@@@@@@@@@@@@@@@@@@@@@@@@@@@@*/\n\n    \n    \n    // Account used to deploy contract\n    address private contractOwner;                  \n\n    // Token name\n    string private _name;\n\n    // Token symbol\n    string private _symbol;\n\n    // Mapping from token ID to owner address\n    mapping(uint256 => address) private _owners;\n\n    // Mapping owner address to token count\n    mapping(address => uint256) private _balances;\n\n    // Mapping from token ID to approved address\n    mapping(uint256 => address) private _tokenApprovals;\n\n    // Mapping from owner to operator approvals\n    mapping(address => mapping(address => bool)) private _operatorApprovals;\n\n/*>>>>>>>>>>>>>>>>>>>>>>>>>>> ACCESS CONTROL: ADMINISTRATOR ROLE  <<<<<<<<<<<<<<<<<<<<<<<<<<*/\n    // Track authorized admins count to prevent lockout\n    uint256 private authorizedAdminsCount = 1;                      \n\n    // Admins authorized to manage contract\n    mapping(address => uint256) private authorizedAdmins;                      \n\n\n/*@@@@@@@@@@@@@@@@@@@@@@@@@@@@@@@@@@@@@@@@@@@@@@@@@@@@@@@@@@@@@@@@@@@@@@@@@@@@@@@@@@@@@@@@@@*/\n/*@@@@@@@@@@@@@@@@@@@@@@@@@@@@@@@@@@ C O N S T R U C T O R @@@@@@@@@@@@@@@@@@@@@@@@@@@@@@@@@*/\n/*@@@@@@@@@@@@@@@@@@@@@@@@@@@@@@@@@@@@@@@@@@@@@@@@@@@@@@@@@@@@@@@@@@@@@@@@@@@@@@@@@@@@@@@@@@*/\n\n    constructor()  \n    {\n        contractOwner = msg.sender;       \n\n/*>>>>>>>>>>>>>>>>>>>>>>>>>>> ACCESS CONTROL: ADMINISTRATOR ROLE  <<<<<<<<<<<<<<<<<<<<<<<<<<*/\n        // Add account that deployed contract as an authorized admin\n        authorizedAdmins[msg.sender] = 1;       \n\n    }\n\n/*@@@@@@@@@@@@@@@@@@@@@@@@@@@@@@@@@@@@@@@@@@@@@@@@@@@@@@@@@@@@@@@@@@@@@@@@@@@@@@@@@@@@@@@@@@*/\n/*@@@@@@@@@@@@@@@@@@@@@@@@@@@@@@@@@@@@@@@ E V E N T S @@@@@@@@@@@@@@@@@@@@@@@@@@@@@@@@@@@@@@*/\n/*@@@@@@@@@@@@@@@@@@@@@@@@@@@@@@@@@@@@@@@@@@@@@@@@@@@@@@@@@@@@@@@@@@@@@@@@@@@@@@@@@@@@@@@@@@*/\n\n\n\n/*@@@@@@@@@@@@@@@@@@@@@@@@@@@@@@@@@@@@@@@@@@@@@@@@@@@@@@@@@@@@@@@@@@@@@@@@@@@@@@@@@@@@@@@@@@*/\n/*@@@@@@@@@@@@@@@@@@@@@@@@@@@@@@@@@@@@ M O D I F I E R S @@@@@@@@@@@@@@@@@@@@@@@@@@@@@@@@@@@*/\n/*@@@@@@@@@@@@@@@@@@@@@@@@@@@@@@@@@@@@@@@@@@@@@@@@@@@@@@@@@@@@@@@@@@@@@@@@@@@@@@@@@@@@@@@@@@*/\n\n\n/*>>>>>>>>>>>>>>>>>>>>>>>>>>> ACCESS CONTROL: ADMINISTRATOR ROLE  <<<<<<<<<<<<<<<<<<<<<<<<<<*/\n    /**\n    * @dev Modifier that requires the function caller to be a contract admin\n    */\n    modifier requireContractAdmin()\n    {\n        require(isContractAdmin(msg.sender), \"Caller is not a contract administrator\");\n        // Modifiers require an \"_\" which indicates where the function body will be added\n        _;\n    }\n\n\n/*@@@@@@@@@@@@@@@@@@@@@@@@@@@@@@@@@@@@@@@@@@@@@@@@@@@@@@@@@@@@@@@@@@@@@@@@@@@@@@@@@@@@@@@@@@*/\n/*@@@@@@@@@@@@@@@@@@@@@@@@@@@@@@@@@@@@@@ F U N C T I O N S @@@@@@@@@@@@@@@@@@@@@@@@@@@@@@@@@*/\n/*@@@@@@@@@@@@@@@@@@@@@@@@@@@@@@@@@@@@@@@@@@@@@@@@@@@@@@@@@@@@@@@@@@@@@@@@@@@@@@@@@@@@@@@@@@*/\n\n    /**\n     * @dev See {IERC165-supportsInterface}.\n     */\n    function supportsInterface(bytes4 interfaceId) public view virtual override(ERC165, IERC165) returns (bool) {\n        return\n            interfaceId == type(IERC721).interfaceId ||\n            interfaceId == type(IERC721Metadata).interfaceId ||\n            super.supportsInterface(interfaceId);\n    }\n\n    /**\n     * @dev See {IERC721-balanceOf}.\n     */\n    function balanceOf(address owner) public view virtual override returns (uint256) {\n        require(owner != address(0), \"ERC721: balance query for the zero address\");\n        return _balances[owner];\n    }\n\n    /**\n     * @dev See {IERC721-ownerOf}.\n     */\n    function ownerOf(uint256 tokenId) public view virtual override returns (address) {\n        address owner = _owners[tokenId];\n        require(owner != address(0), \"ERC721: owner query for nonexistent token\");\n        return owner;\n    }\n\n    /**\n     * @dev See {IERC721Metadata-name}.\n     */\n    function setName(string memory name_) public virtual {\n        _name = name_;\n    }\n\n    /**\n     * @dev See {IERC721Metadata-symbol}.\n     */\n    function setSymbol(string memory symbol_) public virtual {\n        _symbol = symbol_;\n    }\n\n        /**\n     * @dev See {IERC721Metadata-name}.\n     */\n    function name() public view virtual override returns (string memory) {\n        return _name;\n    }\n\n    /**\n     * @dev See {IERC721Metadata-symbol}.\n     */\n    function symbol() public view virtual override returns (string memory) {\n        return _symbol;\n    }\n\n    /**\n     * @dev See {IERC721Metadata-tokenURI}.\n     */\n    function tokenURI(uint256 tokenId) public view virtual override returns (string memory) {\n        require(_exists(tokenId), \"ERC721Metadata: URI query for nonexistent token\");\n\n        string memory baseURI = _baseURI();\n        return bytes(baseURI).length > 0 ? string(abi.encodePacked(baseURI, tokenId.toString())) : \"\";\n    }\n\n    /**\n     * @dev Base URI for computing {tokenURI}. If set, the resulting URI for each\n     * token will be the concatenation of the `baseURI` and the `tokenId`. Empty\n     * by default, can be overriden in child contracts.\n     */\n    function _baseURI() internal view virtual returns (string memory) {\n        return \"\";\n    }\n\n    /**\n     * @dev See {IERC721-approve}.\n     */\n    function approve(address to, uint256 tokenId) public virtual override {\n        address owner = DappState.ownerOf(tokenId);\n        require(to != owner, \"ERC721: approval to current owner\");\n\n        require(\n            msgSender() == owner || isApprovedForAll(owner, msgSender()),\n            \"ERC721: approve caller is not owner nor approved for all\"\n        );\n\n        _approve(to, tokenId);\n    }\n\n    /**\n     * @dev See {IERC721-getApproved}.\n     */\n    function getApproved(uint256 tokenId) public view virtual override returns (address) {\n        require(_exists(tokenId), \"ERC721: approved query for nonexistent token\");\n\n        return _tokenApprovals[tokenId];\n    }\n\n    /**\n     * @dev See {IERC721-setApprovalForAll}.\n     */\n    function setApprovalForAll(address operator, bool approved) public virtual override {\n        require(operator != msgSender(), \"ERC721: approve to caller\");\n\n        _operatorApprovals[msgSender()][operator] = approved;\n        emit ApprovalForAll(msgSender(), operator, approved);\n    }\n\n    /**\n     * @dev See {IERC721-isApprovedForAll}.\n     */\n    function isApprovedForAll(address owner, address operator) public view virtual override returns (bool) {\n        return _operatorApprovals[owner][operator];\n    }\n\n    /**\n     * @dev See {IERC721-transferFrom}.\n     */\n    function transferFrom(\n        address from,\n        address to,\n        uint256 tokenId\n    ) public virtual override {\n        //solhint-disable-next-line max-line-length\n        require(_isApprovedOrOwner(msgSender(), tokenId), \"ERC721: transfer caller is not owner nor approved\");\n\n        _transfer(from, to, tokenId);\n    }\n\n    /**\n     * @dev See {IERC721-safeTransferFrom}.\n     */\n    function safeTransferFrom(\n        address from,\n        address to,\n        uint256 tokenId\n    ) public virtual override {\n        safeTransferFrom(from, to, tokenId, \"\");\n    }\n\n    /**\n     * @dev See {IERC721-safeTransferFrom}.\n     */\n    function safeTransferFrom(\n        address from,\n        address to,\n        uint256 tokenId,\n        bytes memory _data\n    ) public virtual override {\n        require(_isApprovedOrOwner(msgSender(), tokenId), \"ERC721: transfer caller is not owner nor approved\");\n        _safeTransfer(from, to, tokenId, _data);\n    }\n\n    /**\n     * @dev Safely transfers `tokenId` token from `from` to `to`, checking first that contract recipients\n     * are aware of the ERC721 protocol to prevent tokens from being forever locked.\n     *\n     * `_data` is additional data, it has no specified format and it is sent in call to `to`.\n     *\n     * This internal function is equivalent to {safeTransferFrom}, and can be used to e.g.\n     * implement alternative mechanisms to perform token transfer, such as signature-based.\n     *\n     * Requirements:\n     *\n     * - `from` cannot be the zero address.\n     * - `to` cannot be the zero address.\n     * - `tokenId` token must exist and be owned by `from`.\n     * - If `to` refers to a smart contract, it must implement {IERC721Receiver-onERC721Received}, which is called upon a safe transfer.\n     *\n     * Emits a {Transfer} event.\n     */\n    function _safeTransfer(\n        address from,\n        address to,\n        uint256 tokenId,\n        bytes memory _data\n    ) public virtual {\n        _transfer(from, to, tokenId);\n        require(_checkOnERC721Received(from, to, tokenId, _data), \"ERC721: transfer to non ERC721Receiver implementer\");\n    }\n\n    /**\n     * @dev Returns whether `tokenId` exists.\n     *\n     * Tokens can be managed by their owner or approved accounts via {approve} or {setApprovalForAll}.\n     *\n     * Tokens start existing when they are minted (`_mint`),\n     * and stop existing when they are burned (`_burn`).\n     */\n    function _exists(uint256 tokenId) internal view virtual returns (bool) {\n        return _owners[tokenId] != address(0);\n    }\n\n    /**\n     * @dev Returns whether `spender` is allowed to manage `tokenId`.\n     *\n     * Requirements:\n     *\n     * - `tokenId` must exist.\n     */\n    function _isApprovedOrOwner(address spender, uint256 tokenId) internal view virtual returns (bool) {\n        require(_exists(tokenId), \"ERC721: operator query for nonexistent token\");\n        address owner = DappState.ownerOf(tokenId);\n        return (spender == owner || getApproved(tokenId) == spender || isApprovedForAll(owner, spender));\n    }\n\n    /**\n     * @dev Safely mints `tokenId` and transfers it to `to`.\n     *\n     * Requirements:\n     *\n     * - `tokenId` must not exist.\n     * - If `to` refers to a smart contract, it must implement {IERC721Receiver-onERC721Received}, which is called upon a safe transfer.\n     *\n     * Emits a {Transfer} event.\n     */\n    function _safeMint(address to, uint256 tokenId) external virtual requireContractAdmin {\n        _safeMint(to, tokenId, \"\");\n    }\n\n    /**\n     * @dev Same as {xref-ERC721-_safeMint-address-uint256-}[`_safeMint`], with an additional `data` parameter which is\n     * forwarded in {IERC721Receiver-onERC721Received} to contract recipients.\n     */\n    function _safeMint(\n        address to,\n        uint256 tokenId,\n        bytes memory _data\n    ) public virtual requireContractAdmin {\n        _mint(to, tokenId);\n        require(\n            _checkOnERC721Received(address(0), to, tokenId, _data),\n            \"ERC721: transfer to non ERC721Receiver implementer\"\n        );\n    }\n\n    /**\n     * @dev Mints `tokenId` and transfers it to `to`.\n     *\n     * WARNING: Usage of this method is discouraged, use {_safeMint} whenever possible\n     *\n     * Requirements:\n     *\n     * - `tokenId` must not exist.\n     * - `to` cannot be the zero address.\n     *\n     * Emits a {Transfer} event.\n     */\n    function _mint(address to, uint256 tokenId) internal virtual {\n        require(to != address(0), \"ERC721: mint to the zero address\");\n        require(!_exists(tokenId), \"ERC721: token already minted\");\n\n        _beforeTokenTransfer(address(0), to, tokenId);\n\n        _balances[to] += 1;\n        _owners[tokenId] = to;\n\n        emit Transfer(address(0), to, tokenId);\n    }\n\n    /**\n     * @dev Destroys `tokenId`.\n     * The approval is cleared when the token is burned.\n     *\n     * Requirements:\n     *\n     * - `tokenId` must exist.\n     *\n     * Emits a {Transfer} event.\n     */\n    function _burn(uint256 tokenId) public virtual requireContractAdmin {\n        address owner = DappState.ownerOf(tokenId);\n\n        _beforeTokenTransfer(owner, address(0), tokenId);\n\n        // Clear approvals\n        _approve(address(0), tokenId);\n\n        _balances[owner] -= 1;\n        delete _owners[tokenId];\n\n        emit Transfer(owner, address(0), tokenId);\n    }\n\n    /**\n     * @dev Transfers `tokenId` from `from` to `to`.\n     *  As opposed to {transferFrom}, this imposes no restrictions on msg.sender.\n     *\n     * Requirements:\n     *\n     * - `to` cannot be the zero address.\n     * - `tokenId` token must be owned by `from`.\n     *\n     * Emits a {Transfer} event.\n     */\n    function _transfer(\n        address from,\n        address to,\n        uint256 tokenId\n    ) internal virtual {\n        require(DappState.ownerOf(tokenId) == from, \"ERC721: transfer of token that is not own\");\n        require(to != address(0), \"ERC721: transfer to the zero address\");\n\n        _beforeTokenTransfer(from, to, tokenId);\n\n        // Clear approvals from the previous owner\n        _approve(address(0), tokenId);\n\n        _balances[from] -= 1;\n        _balances[to] += 1;\n        _owners[tokenId] = to;\n\n        emit Transfer(from, to, tokenId);\n    }\n\n    /**\n     * @dev Approve `to` to operate on `tokenId`\n     *\n     * Emits a {Approval} event.\n     */\n    function _approve(address to, uint256 tokenId) public virtual requireContractAdmin {\n        _tokenApprovals[tokenId] = to;\n        emit Approval(DappState.ownerOf(tokenId), to, tokenId);\n    }\n\n    /**\n     * @dev Internal function to invoke {IERC721Receiver-onERC721Received} on a target address.\n     * The call is not executed if the target address is not a contract.\n     *\n     * @param from address representing the previous owner of the given token ID\n     * @param to target address that will receive the tokens\n     * @param tokenId uint256 ID of the token to be transferred\n     * @param _data bytes optional data to send along with the call\n     * @return bool whether the call correctly returned the expected magic value\n     */\n    function _checkOnERC721Received(\n        address from,\n        address to,\n        uint256 tokenId,\n        bytes memory _data\n    ) private returns (bool) {\n        if (to.isContract()) {\n            try IERC721Receiver(to).onERC721Received(msgSender(), from, tokenId, _data) returns (bytes4 retval) {\n                return retval == IERC721Receiver.onERC721Received.selector;\n            } catch (bytes memory reason) {\n                if (reason.length == 0) {\n                    revert(\"ERC721: transfer to non ERC721Receiver implementer\");\n                } else {\n                    assembly {\n                        revert(add(32, reason), mload(reason))\n                    }\n                }\n            }\n        } else {\n            return true;\n        }\n    }\n\n    /**\n     * @dev Hook that is called before any token transfer. This includes minting\n     * and burning.\n     *\n     * Calling conditions:\n     *\n     * - When `from` and `to` are both non-zero, ``from``'s `tokenId` will be\n     * transferred to `to`.\n     * - When `from` is zero, `tokenId` will be minted for `to`.\n     * - When `to` is zero, ``from``'s `tokenId` will be burned.\n     * - `from` and `to` are never both zero.\n     *\n     * To learn more about hooks, head to xref:ROOT:extending-contracts.adoc#using-hooks[Using Hooks].\n     */\n    function _beforeTokenTransfer(\n        address from,\n        address to,\n        uint256 tokenId\n    ) internal virtual {}\n\n    function asSingletonArray(uint256 element) private pure returns (uint256[] memory) {\n        uint256[] memory array = new uint256[](1);\n        array[0] = element;\n\n        return array;\n    }\n\n/*>>>>>>>>>>>>>>>>>>>>>>>>>>> ACCESS CONTROL: ADMINISTRATOR ROLE  <<<<<<<<<<<<<<<<<<<<<<<<<<*/\n    /**\n    * @dev Checks if an account is an admin\n    *\n    * @param account Address of the account to check\n    */\n    function isContractAdmin\n                            (\n                                address account\n                            ) \n                            public \n                            view\n                            returns(bool) \n    {\n        return authorizedAdmins[account] == 1;\n    }\n\n\n    /**\n    * @dev Adds a contract admin\n    *\n    * @param account Address of the admin to add\n    */\n    function addContractAdmin\n                            (\n                                address account\n                            ) \n                            external \n                            requireContractAdmin\n    {\n        require(account != address(0), \"Invalid address\");\n        require(authorizedAdmins[account] < 1, \"Account is already an administrator\");\n\n        authorizedAdmins[account] = 1;\n        authorizedAdminsCount++;\n    }\n\n    /**\n    * @dev Removes a previously added admin\n    *\n    * @param account Address of the admin to remove\n    */\n    function removeContractAdmin\n                            (\n                                address account\n                            ) \n                            external \n                            requireContractAdmin\n    {\n        require(account != address(0), \"Invalid address\");\n        require(authorizedAdminsCount >= 2, \"Cannot remove last admin\");\n\n        delete authorizedAdmins[account];\n        authorizedAdminsCount--;\n    }\n\n    /**\n    * @dev Removes the last admin fully decentralizing the contract\n    *\n    * @param account Address of the admin to remove\n    */\n    function removeLastContractAdmin\n                            (\n                                address account\n                            ) \n                            external \n                            requireContractAdmin\n    {\n        require(account != address(0), \"Invalid address\");\n        require(authorizedAdminsCount == 1, \"Not the last admin\");\n\n        delete authorizedAdmins[account];\n        authorizedAdminsCount--;\n    }\n\n\n\n//  Example functions that demonstrate how to call into this contract that holds state from\n//  another contract. Look in ~/interfaces/IDappState.sol for the interface definitions and\n//  in Dapp.sol for the actual calls into this contract.\n\n    /**\n    * @dev This is an EXAMPLE function that illustrates how functions in this contract can be\n    *      called securely from another contract to READ state data. Using the Contract Access \n    *      block will enable you to make your contract more secure by restricting which external\n    *      contracts can call functions in this contract.\n    */\n    function getContractOwner()\n                                external\n                                view\n                                override\n                                returns(address)\n    {\n        return contractOwner;\n    }\n\n    uint256 counter;    // This is an example variable used only to demonstrate calling\n                        // a function that writes state from an external contract. It and\n                        // \"incrementCounter\" and \"getCounter\" functions can (should?) be deleted.\n    /**\n    * @dev This is an EXAMPLE function that illustrates how functions in this contract can be\n    *      called securely from another contract to WRITE state data. Using the Contract Access \n    *      block will enable you to make your contract more secure by restricting which external\n    *       contracts can call functions in this contract.\n    */\n    function incrementCounter\n                            (\n                                uint256 increment\n                            )\n                            external\n                            override\n                            // Enable the modifier below if using the Contract Access feature\n                            // requireContractAuthorized\n    {\n        // NOTE: If another contract is calling this function, then msg.sender will be the address\n        //       of the calling contract and NOT the address of the user who initiated the\n        //       transaction. It is possible to get the address of the user, but this is \n        //       spoofable and therefore not recommended.\n        \n        require(increment > 0 && increment < 10, \"Invalid increment value\");\n        counter = counter.add(increment);   // Demonstration of using SafeMath to add to a number\n                                            // While verbose, using SafeMath everywhere that you\n                                            // add/sub/div/mul will ensure your contract does not\n                                            // have weird overflow bugs.\n    }\n\n    /**\n    * @dev This is an another EXAMPLE function that illustrates how functions in this contract can be\n    *      called securely from another contract to READ state data. Using the Contract Access \n    *      block will enable you to make your contract more secure by restricting which external\n    *      contracts can call functions in this contract.\n    */\n    function getCounter()\n                                external\n                                view\n                                override\n                                returns(uint256)\n    {\n        return counter;\n    }\n\n}   \n",
  "sourcePath": "/Users/ekim/Desktop/voting-dapp/contracts/DappState.sol",
  "compiler": {
    "name": "solc",
    "version": "0.8.7+commit.e28d00a7.Emscripten.clang"
  },
  "schemaVersion": "3.4.16",
  "updatedAt": "2023-09-16T14:55:59.177Z",
  "networkType": "ethereum",
  "devdoc": {
    "kind": "dev",
    "methods": {
      "_approve(address,uint256)": {
        "details": "Approve `to` to operate on `tokenId` Emits a {Approval} event."
      },
      "_burn(uint256)": {
        "details": "Destroys `tokenId`. The approval is cleared when the token is burned. Requirements: - `tokenId` must exist. Emits a {Transfer} event."
      },
      "_safeMint(address,uint256)": {
        "details": "Safely mints `tokenId` and transfers it to `to`. Requirements: - `tokenId` must not exist. - If `to` refers to a smart contract, it must implement {IERC721Receiver-onERC721Received}, which is called upon a safe transfer. Emits a {Transfer} event."
      },
      "_safeMint(address,uint256,bytes)": {
        "details": "Same as {xref-ERC721-_safeMint-address-uint256-}[`_safeMint`], with an additional `data` parameter which is forwarded in {IERC721Receiver-onERC721Received} to contract recipients."
      },
      "_safeTransfer(address,address,uint256,bytes)": {
        "details": "Safely transfers `tokenId` token from `from` to `to`, checking first that contract recipients are aware of the ERC721 protocol to prevent tokens from being forever locked. `_data` is additional data, it has no specified format and it is sent in call to `to`. This internal function is equivalent to {safeTransferFrom}, and can be used to e.g. implement alternative mechanisms to perform token transfer, such as signature-based. Requirements: - `from` cannot be the zero address. - `to` cannot be the zero address. - `tokenId` token must exist and be owned by `from`. - If `to` refers to a smart contract, it must implement {IERC721Receiver-onERC721Received}, which is called upon a safe transfer. Emits a {Transfer} event."
      },
      "addContractAdmin(address)": {
        "details": "Adds a contract admin",
        "params": {
          "account": "Address of the admin to add"
        }
      },
      "approve(address,uint256)": {
        "details": "See {IERC721-approve}."
      },
      "balanceOf(address)": {
        "details": "See {IERC721-balanceOf}."
      },
      "getApproved(uint256)": {
        "details": "See {IERC721-getApproved}."
      },
      "getContractOwner()": {
        "details": "This is an EXAMPLE function that illustrates how functions in this contract can be      called securely from another contract to READ state data. Using the Contract Access       block will enable you to make your contract more secure by restricting which external      contracts can call functions in this contract."
      },
      "getCounter()": {
        "details": "This is an another EXAMPLE function that illustrates how functions in this contract can be      called securely from another contract to READ state data. Using the Contract Access       block will enable you to make your contract more secure by restricting which external      contracts can call functions in this contract."
      },
      "incrementCounter(uint256)": {
        "details": "This is an EXAMPLE function that illustrates how functions in this contract can be      called securely from another contract to WRITE state data. Using the Contract Access       block will enable you to make your contract more secure by restricting which external       contracts can call functions in this contract."
      },
      "isApprovedForAll(address,address)": {
        "details": "See {IERC721-isApprovedForAll}."
      },
      "isContractAdmin(address)": {
        "details": "Checks if an account is an admin",
        "params": {
          "account": "Address of the account to check"
        }
      },
      "name()": {
        "details": "See {IERC721Metadata-name}."
      },
      "ownerOf(uint256)": {
        "details": "See {IERC721-ownerOf}."
      },
      "removeContractAdmin(address)": {
        "details": "Removes a previously added admin",
        "params": {
          "account": "Address of the admin to remove"
        }
      },
      "removeLastContractAdmin(address)": {
        "details": "Removes the last admin fully decentralizing the contract",
        "params": {
          "account": "Address of the admin to remove"
        }
      },
      "safeTransferFrom(address,address,uint256)": {
        "details": "See {IERC721-safeTransferFrom}."
      },
      "safeTransferFrom(address,address,uint256,bytes)": {
        "details": "See {IERC721-safeTransferFrom}."
      },
      "setApprovalForAll(address,bool)": {
        "details": "See {IERC721-setApprovalForAll}."
      },
      "setName(string)": {
        "details": "See {IERC721Metadata-name}."
      },
      "setSymbol(string)": {
        "details": "See {IERC721Metadata-symbol}."
      },
      "supportsInterface(bytes4)": {
        "details": "See {IERC165-supportsInterface}."
      },
      "symbol()": {
        "details": "See {IERC721Metadata-symbol}."
      },
      "tokenURI(uint256)": {
        "details": "See {IERC721Metadata-tokenURI}."
      },
      "transferFrom(address,address,uint256)": {
        "details": "See {IERC721-transferFrom}."
      }
    },
    "version": 1
  },
  "userdoc": {
    "kind": "user",
    "methods": {},
    "version": 1
  }
}