{
  "contractName": "Election",
  "abi": [
    {
      "inputs": [],
      "stateMutability": "nonpayable",
      "type": "constructor"
    },
    {
      "anonymous": false,
      "inputs": [
        {
          "indexed": true,
          "internalType": "address",
          "name": "voter",
          "type": "address"
        },
        {
          "indexed": true,
          "internalType": "uint256",
          "name": "candidateId",
          "type": "uint256"
        }
      ],
      "name": "Voted",
      "type": "event"
    },
    {
      "inputs": [
        {
          "internalType": "uint256",
          "name": "",
          "type": "uint256"
        }
      ],
      "name": "candidates",
      "outputs": [
        {
          "internalType": "uint256",
          "name": "id",
          "type": "uint256"
        },
        {
          "internalType": "string",
          "name": "name",
          "type": "string"
        },
        {
          "internalType": "uint256",
          "name": "voteCount",
          "type": "uint256"
        }
      ],
      "stateMutability": "view",
      "type": "function",
      "constant": true
    },
    {
      "inputs": [
        {
          "internalType": "address",
          "name": "",
          "type": "address"
        }
      ],
      "name": "voters",
      "outputs": [
        {
          "internalType": "bool",
          "name": "",
          "type": "bool"
        }
      ],
      "stateMutability": "view",
      "type": "function",
      "constant": true
    },
    {
      "inputs": [
        {
          "internalType": "uint256",
          "name": "_candidateId",
          "type": "uint256"
        }
      ],
      "name": "vote",
      "outputs": [],
      "stateMutability": "nonpayable",
      "type": "function"
    },
    {
      "inputs": [
        {
          "internalType": "uint256",
          "name": "_candidateId",
          "type": "uint256"
        }
      ],
      "name": "getTotalVotes",
      "outputs": [
        {
          "internalType": "uint256",
          "name": "",
          "type": "uint256"
        }
      ],
      "stateMutability": "view",
      "type": "function",
      "constant": true
    }
  ],
  "bytecode": "0x60806040523480156200001157600080fd5b50620000586040518060400160405280601e81526020017f414b50202d204164616c6574207665204b616c6b696e6d6120506172746900008152506200015a60201b60201c565b6200009e6040518060400160405280601d81526020017f434850202d2043756d687572697965742048616c6b20506172746973690000008152506200015a60201b60201c565b620000e46040518060400160405280600f81526020017f495949202d2049796920506172746900000000000000000000000000000000008152506200015a60201b60201c565b6200012a6040518060400160405280602081526020017f4d4850202d204d696c6c69796574636920486172656b657420506172746973698152506200015a60201b60201c565b6200015460405180606001604052806022815260200162000b46602291396200015a60201b60201c565b620002f3565b60006040518060600160405280600080549050815260200183815260200160008152509080600181540180825580915050600190039060005260206000209060030201600090919091909150600082015181600001556020820151816001019080519060200190620001ce929190620001de565b5060408201518160020155505050565b828054620001ec906200028e565b90600052602060002090601f0160209004810192826200021057600085556200025c565b82601f106200022b57805160ff19168380011785556200025c565b828001600101855582156200025c579182015b828111156200025b5782518255916020019190600101906200023e565b5b5090506200026b91906200026f565b5090565b5b808211156200028a57600081600090555060010162000270565b5090565b60006002820490506001821680620002a757607f821691505b60208210811415620002be57620002bd620002c4565b5b50919050565b7f4e487b7100000000000000000000000000000000000000000000000000000000600052602260045260246000fd5b61084380620003036000396000f3fe608060405234801561001057600080fd5b506004361061004c5760003560e01c80630121b93f146100515780632ce35e111461006d5780633477ee2e1461009d578063a3ec138d146100cf575b600080fd5b61006b6004803603810190610066919061045a565b6100ff565b005b6100876004803603810190610082919061045a565b6102ac565b604051610094919061057f565b60405180910390f35b6100b760048036038101906100b2919061045a565b610321565b6040516100c69392919061059a565b60405180910390f35b6100e960048036038101906100e4919061042d565b6103e3565b6040516100f69190610524565b60405180910390f35b600160003373ffffffffffffffffffffffffffffffffffffffff1673ffffffffffffffffffffffffffffffffffffffff16815260200190815260200160002060009054906101000a900460ff161561018c576040517f08c379a00000000000000000000000000000000000000000000000000000000081526004016101839061053f565b60405180910390fd5b60008054905081106101d3576040517f08c379a00000000000000000000000000000000000000000000000000000000081526004016101ca9061055f565b60405180910390fd5b60018060003373ffffffffffffffffffffffffffffffffffffffff1673ffffffffffffffffffffffffffffffffffffffff16815260200190815260200160002060006101000a81548160ff0219169083151502179055506000818154811061023e5761023d610748565b5b90600052602060002090600302016002016000815480929190610260906106a1565b9190505550803373ffffffffffffffffffffffffffffffffffffffff167f4d99b957a2bc29a30ebd96a7be8e68fe50a3c701db28a91436490b7d53870ca460405160405180910390a350565b6000808054905082106102f4576040517f08c379a00000000000000000000000000000000000000000000000000000000081526004016102eb9061055f565b60405180910390fd5b6000828154811061030857610307610748565b5b9060005260206000209060030201600201549050919050565b6000818154811061033157600080fd5b906000526020600020906003020160009150905080600001549080600101805461035a9061066f565b80601f01602080910402602001604051908101604052809291908181526020018280546103869061066f565b80156103d35780601f106103a8576101008083540402835291602001916103d3565b820191906000526020600020905b8154815290600101906020018083116103b657829003601f168201915b5050505050908060020154905083565b60016020528060005260406000206000915054906101000a900460ff1681565b600081359050610412816107df565b92915050565b600081359050610427816107f6565b92915050565b60006020828403121561044357610442610777565b5b600061045184828501610403565b91505092915050565b6000602082840312156104705761046f610777565b5b600061047e84828501610418565b91505092915050565b61049081610606565b82525050565b60006104a1826105d8565b6104ab81856105e3565b93506104bb81856020860161063c565b6104c48161077c565b840191505092915050565b60006104dc6017836105e3565b91506104e78261078d565b602082019050919050565b60006104ff6015836105e3565b915061050a826107b6565b602082019050919050565b61051e81610632565b82525050565b60006020820190506105396000830184610487565b92915050565b60006020820190508181036000830152610558816104cf565b9050919050565b60006020820190508181036000830152610578816104f2565b9050919050565b60006020820190506105946000830184610515565b92915050565b60006060820190506105af6000830186610515565b81810360208301526105c18185610496565b90506105d06040830184610515565b949350505050565b600081519050919050565b600082825260208201905092915050565b60006105ff82610612565b9050919050565b60008115159050919050565b600073ffffffffffffffffffffffffffffffffffffffff82169050919050565b6000819050919050565b60005b8381101561065a57808201518184015260208101905061063f565b83811115610669576000848401525b50505050565b6000600282049050600182168061068757607f821691505b6020821081141561069b5761069a610719565b5b50919050565b60006106ac82610632565b91507fffffffffffffffffffffffffffffffffffffffffffffffffffffffffffffffff8214156106df576106de6106ea565b5b600182019050919050565b7f4e487b7100000000000000000000000000000000000000000000000000000000600052601160045260246000fd5b7f4e487b7100000000000000000000000000000000000000000000000000000000600052602260045260246000fd5b7f4e487b7100000000000000000000000000000000000000000000000000000000600052603260045260246000fd5b600080fd5b6000601f19601f8301169050919050565b7f596f75206861766520616c726561647920766f7465642e000000000000000000600082015250565b7f496e76616c69642063616e6469646174652049442e0000000000000000000000600082015250565b6107e8816105f4565b81146107f357600080fd5b50565b6107ff81610632565b811461080a57600080fd5b5056fea26469706673582212203e809e3b19b874c8b5c62d8f3e11963e0f7b07158098893ea4dc788febcff01b64736f6c63430008070033484450202d2048616c6b6c6172696e2044656d6f6b726174696b2050617274697369",
  "immutableReferences": {},
  "source": "pragma solidity ^0.8.0;\n\ncontract Election {\n    // Structure to represent a candidate\n    struct Candidate {\n        uint id;\n        string name;\n        uint voteCount;\n    }\n\n    // Store a list of candidates\n    Candidate[] public candidates;\n\n    // Keep track of which address has voted\n    mapping(address => bool) public voters;\n\n    // Constructor to add candidates\n    constructor() {\n        addCandidate(\"AKP - Adalet ve Kalkinma Parti\");\n        addCandidate(\"CHP - Cumhuriyet Halk Partisi\");\n        addCandidate(\"IYI - Iyi Parti\");\n        addCandidate(\"MHP - Milliyetci Hareket Partisi\");\n        addCandidate(\"HDP - Halklarin Demokratik Partisi\");\n    }\n\n    // Function to add a candidate\n    function addCandidate(string memory _name) private {\n        candidates.push(Candidate(candidates.length, _name, 0));\n    }\n\n    // Function to vote for a candidate\n    function vote(uint _candidateId) public {\n        // Check if the sender has not voted before\n        require(!voters[msg.sender], \"You have already voted.\");\n\n        // Check if the candidate ID is valid\n        require(_candidateId < candidates.length, \"Invalid candidate ID.\");\n\n        // Record that the sender has voted\n        voters[msg.sender] = true;\n\n        // Increment the candidate's vote count\n        candidates[_candidateId].voteCount++;\n\n        // Emit an event to indicate the vote\n        emit Voted(msg.sender, _candidateId);\n    }\n\n    // Function to get the total vote count for a candidate\n    function getTotalVotes(uint _candidateId) public view returns (uint) {\n        require(_candidateId < candidates.length, \"Invalid candidate ID.\");\n        return candidates[_candidateId].voteCount;\n    }\n\n    // Event to log when a user votes\n    event Voted(address indexed voter, uint indexed candidateId);\n}\n",
  "sourcePath": "/Users/ekim/Desktop/voting-dapp/contracts/Election.sol",
  "compiler": {
    "name": "solc",
    "version": "0.8.7+commit.e28d00a7.Emscripten.clang"
  },
  "schemaVersion": "3.4.16",
  "updatedAt": "2023-09-18T16:04:25.635Z",
  "networkType": "ethereum",
  "devdoc": {
    "kind": "dev",
    "methods": {},
    "version": 1
  },
  "userdoc": {
    "kind": "user",
    "methods": {},
    "version": 1
  }
}